:020000040800F2
:1000000000000524DD220008B91E0008BB1E000800
:10001000BD1E0008BF1E0008C11E00080000000031
:10002000000000000000000000000000B1AB00086C
:10003000C31E00080000000051AC000837A70008EC
:100040003123000831230008312300083123000840
:100050003123000831230008312300083123000830
:10006000312300083123000831230008C51E000891
:10007000D51E000831230008312300083123000871
:100080003123000831230008312300083123000800
:1000900031230008312300083123000831230008F0
:1000A00031230008312300083123000831230008E0
:1000B00031230008312300083123000831230008D0
:1000C00031230008312300083123000831230008C0
:1000D00031230008E51E0008312300083123000801
:1000E00031230008312300080000000031230008FC
:1000F0003123000831230008312300083123000890
:1001000031230008F51E00083123000831230008C0
:100110003123000831230008051F0008312300089F
:10012000312300083123000831230008312300085F
:10013000312300083123000831230008312300084F
:1001400000000000000000000000000000000000AF
:10015000312300083123000831230008312300082F
:10016000312300083123000831230008312300081F
:10017000312300083123000831230008000000006B
:1001800031230008312300083123000831230008FF
:100190003123000831230008151F0008312300080F
:1001A000312300083123000831230008000000003B
:1001B00031230008312300083123000831230008CF
:1001C0003123000831230008000000000000000077
:1001D00000000000000000003123000800000000C3
:1001E000000000000000000000000000000000000F
:1001F0000000000000000000312300083123000847
:1002000031230008312300080000000031230008DA
:10021000312300083123000831230008312300086E
:100220003123000800000000312300080000000016
:1002300031230008312300080000000031230008AA
:1002400031230008251F000831230008312300084E
:10025000312300083123000831230008312300082E
:10026000312300083123000831230008312300081E
:10027000312300083123000831230008000000006A
:1002800031230008312300083123000831230008FE
:1002900000000000312300083123000800000000A6
:1002A000000000003123000831230008312300083A
:1002B00031230008312300083123000831230008CE
:0C02C0003123000831230008312300081E
:1002D00053B94AB9002908BF00281CBF4FF0FF31AD
:1002E0004FF0FF3000F00CB8ADF1080C6DE904CE12
:1002F0000CF012FADDF804E0DDE9022304B07047E7
:10030000704700BF00000000000000000000000077
:1003100001F0FF01102A2BDB10F0070F08D010F8B6
:10032000013B013A8B422DD010F0070F42B3F6D1BA
:10033000F0B441EA012141EA014122F007047FF0D3
:1003400000070023F0E80256083C85EA010586EA2A
:10035000010685FA47F5A3FA87F586FA47F6A5FA66
:1003600087F68EB9EED1F0BC01F0FF0102F0070272
:1003700032B110F8013B013A83EA010313B1F8D11D
:100380000020704701387047002D06BF35460338FE
:10039000073815F0010F07D1013015F4807F02BF37
:1003A000013015F4C03F0130F0BC0138704700BF88
:1003B000034613F8012B002AFBD1181A01387047A5
:1003C0000348044B834202D0034B03B118477047E4
:1003D0001002002410020024000000000548064B13
:1003E0001B1AD90F01EBA301491002D0034B03B133
:1003F000184770471002002410020024000000007B
:1004000010B5064C237843B9FFF7DAFF044B13B15C
:100410000448AFF300800123237010BD10020024B4
:1004200000000000E4FF000808B5054B1BB10549BA
:100430000548AFF30080BDE80840FFF7CFBF00BF1D
:100440000000000014020024E4FF000800B583B09F
:100450000B4BD3F8E02042F40012C3F8E020D3F8AD
:10046000E03003F400130193019B00220521812059
:1004700002F070F8812002F07DF803B05DF804FB13
:100480000044025800B583B00F4BD3F8D82042F097
:100490000102C3F8D820D3F8D83003F00103019348
:1004A000019B002205210B2002F054F80B2002F0E2
:1004B00061F8002205210C2002F04CF80C2002F01B
:1004C00059F803B05DF804FB0044025808B50A4827
:1004D0000A4B0360002343608360C3604FF48032A3
:1004E000026143618361C36103F0D8F900B908BDBB
:1004F00000F074F9FBE700BF2C02002400680058EC
:1005000002680A4B9A4200D0704782B003F5EE337E
:10051000D3F8F42042F08062C3F8F420D3F8F4302A
:1005200003F080630193019B02B07047006800589C
:1005300008B5154C00228021204603F09DFB4FF4A6
:10054000FA700AF0A9F901228021204603F094FBF9
:100550004FF4FA700AF0A0F90C4B19684A1C1A60A3
:100560000B4801F091FE0B4C00220B49204606F08F
:100570001AFD00220949204606F03BFD08490948BA
:1005800003F024FAD5E700BF001802585C020024EB
:100590000C000108DC020124600200247402002423
:1005A000580200242C02002480B588B01A4801F0BB
:1005B000C5F81A4BDC785D789E781F78184B93F855
:1005C000008093F8019093F802A001F057FF154BBB
:1005D000A3FB00239B094FF47A7202FB13000690E1
:1005E000CDF814A0CDF81090CDF80C8002970196AC
:1005F000009504F5FA630C4A0A21084601F0D6FB7F
:100600000A4B1B680A4A1E210A2001F0CFFB012079
:100610000AF042F9CDE700BF000000247402002474
:1006200060020024D34D62101C000108580200240F
:100630004400010870B588B01E4803F094F900F03A
:10064000D1FD1D4E30601D4D02AC204600F00EFE67
:10065000AE46A446BCE80F00AEE80F00DCF8003060
:10066000CEF8003005F10C0393E803008DE8030099
:1006700095E80E00306800F017FE00F0B1FA88B17E
:1006800001F0B4FA0E4A00210E480AF0ABF80E4B06
:1006900018600E4A00210E480AF0A4F80D4B1860AD
:1006A00008B070BD00F0E6FB0028E9D00A4801F070
:1006B000EBFDE5E72C020024740200246002002414
:1006C000D80401083105000854020024B4040108CC
:1006D000A9050008500200245000010870B58CB034
:1006E00007AD00240794089409940A940B942F4BA7
:1006F000D3F8E02042F00402C3F8E020D3F8E02071
:1007000002F004020192019AD3F8E02042F02002A4
:10071000C3F8E020D3F8E02002F020020292029A0F
:10072000D3F8E02042F08002C3F8E020D3F8E020C4
:1007300002F080020392039AD3F8E02042F04002D4
:10074000C3F8E020D3F8E02002F040020492049ABB
:10075000D3F8E02042F00102C3F8E020D3F8E02013
:1007600002F001020592059AD3F8E02042F0080257
:10077000C3F8E020D3F8E03003F008030693069BAB
:100780000B4E224649F28001304603F075FA49F2D9
:100790008003079301230893099402230A932946AF
:1007A000304603F05FF90CB070BD00BF0044025842
:1007B0000018025808B501F0E1FE042001F0ECFE3B
:1007C00008BD000008B50268034B9A4200D008BD7E
:1007D00001F048FEFBE700BF0010004072B6FEE7E4
:1007E00000B59DB04C22002109A80CF06FFF20221B
:1007F000002101A80CF06AFF022004F049F8002350
:100800000093244B9A6922F440429A619B6903F455
:1008100040430093009B1F4B9B6913F4005FFAD089
:1008200004F02EF81C4A136F23F0180313670522F7
:1008300009924FF480330A9301210B910223129302
:10084000139314932C2015901691179218930C2340
:10085000199300231A931B9309A804F043F8A8B92D
:100860003F23019303210291002303930823049360
:100870004023059306934FF480620792089301A8E2
:1008800004F01EFC20B91DB05DF804FBFFF7A6FFC5
:10089000FFF7A4FF004802580044025808B5FFF7CC
:1008A00089FF324B5B6913F4003F13D1BFF34F8FC5
:1008B000BFF36F8F2D4B0022C3F85022BFF34F8F31
:1008C000BFF36F8F5A6942F400325A61BFF34F8F02
:1008D000BFF36F8F254B5B6913F4803F27D1234B08
:1008E0000022C3F88420BFF34F8FD3F880C0CCF32D
:1008F0004E3000E01846CCF3C90243F6E07303EA39
:10090000401343EA82731949C1F860321346013A31
:10091000002BF2D1431E0028ECD1BFF34F8F4B695F
:1009200043F480334B61BFF34F8FBFF36F8F01F000
:100930006BFDFFF755FFFFF7D1FEFFF7A3FDFFF7B4
:1009400085FD01F0CBFB00F013F800F0C7FC09F0C7
:100950001BFD00F049FD00F081FBFFF7B7FD09F03A
:10096000F7FEFFF767FE09F017FFFEE700ED00E076
:1009700000B587B00023009301930293039304937F
:1009800005931848184A0260082242608360C360D9
:1009900020210161012141618361C1610362022162
:1009A00041624FF080418162C362036342638363AB
:1009B000C36303F05BFC78B90123009302934FF00B
:1009C0000113039341F288326946064803F0D2FCD2
:1009D00028B907B05DF804FBFFF700FFECE7FFF76D
:1009E000FDFEF6E77C020124005000522DE9F043A1
:1009F000B9B0044600213391349135913691379145
:100A0000B82204A80CF062FE2268384B9A4202D049
:100A100039B0BDE8F0834FF000720023CDE9042324
:100A200004A804F00FFE00285CD1314BD3F8D42089
:100A300042F40012C3F8D420D3F8D42002F40012F8
:100A40000092009AD3F8D42042F48042C3F8D42014
:100A5000D3F8D42002F480420192019AD3F8E02026
:100A600042F02002C3F8E020D3F8E02002F0200298
:100A70000292029AD3F8E02042F04002C3F8E0204C
:100A8000D3F8E03003F040030393039B4FF47073FB
:100A900033930227349700263596032536954FF079
:100AA0000A08CDF8DC8033ACDFF84C90214648468C
:100AB00002F0D8FF4FF48063339334973596369520
:100AC000092337932146484602F0CCFF4023339355
:100AD000349735963695CDF8DC802146054802F0EE
:100AE000C1FF95E7FFF77AFE9FE700BF0050005275
:100AF00000440258001802580014025800B59BB078
:100B0000002306930793012209920A930B930C93F7
:100B10000D934FF400510E910F9311934FF080718C
:100B2000149116931592179318931993052308930C
:100B300041F2883206A90F4803F027FA98B900233A
:100B400001930393102305934FF48003049301232F
:100B5000029341F2883201A9064803F027FB28B925
:100B60001BB05DF804FB6FF00200F9E76FF00200C4
:100B7000F6E700BF7C02012410B596B00023029373
:100B80000393012205920693079309934FF40052B1
:100B90000A920D934FF080721092129303221192D9
:100BA0001393149315939F2304930C4C41F28832B2
:100BB00002A9204603F0E9F941F2883201A9204652
:100BC00003F091FA9DF804209DF805301B0243EADA
:100BD00002439DF80600184316B010BD7C020124A4
:100BE00008B5FFF7C9FF0146074B1860074B98424D
:100BF00004D1074801F048FB002008BD054801F07A
:100C000043FB4FF0FF30F8E7D80201241740EF0014
:100C1000780001089400010800B59BB000230693FA
:100C20000793012209920A930B930C930D934FF4AF
:100C300000520E920F9313931193149316931793DC
:100C4000189319930623089341F2883206A91D4888
:100C500003F09BF900282CD100230693079301226F
:100C600009920A930B930D93119317931893199369
:100C70004FF08073149315920523089341F2883244
:100C800006A9104803F081F9B0B9022301930022AC
:100C90000392102205924FF480020492029341F2D3
:100CA000883201A9074803F081FA40B91BB05DF80A
:100CB00004FB6FF00100F9E76FF00100F6E76FF059
:100CC0000200F3E77C02012400B595B000230093F5
:100CD0000193012203920493059306904FF48072CE
:100CE00007924FF40052089209930B930E931093BE
:100CF00011931293139352230293FFF78DFF60B960
:100D000041F288326946094803F03FF940B9FFF7DC
:100D1000F5FE40B915B05DF804FB6FF00100F9E78E
:100D20006FF00200F6E76FF00200F3E77C020124A7
:100D300010B594B004460023009301933220029032
:100D4000012003900493059306914FF4807107915D
:100D50004FF40051089109930B930D934FF040719C
:100D60000E9110930F92119312931393FFF754FF68
:100D700090B941F2883269460D4803F006F970B91E
:100D800041F2883221460A4803F060F950B9FFF772
:100D9000B5FE50B914B010BD6FF00100FAE76FF066
:100DA0000400F7E76FF00400F4E76FF00200F1E7EA
:100DB0007C020124F8B506460C46CDB2C5F5807517
:100DC000954200D91546A71803E04FF48075A74255
:100DD00010D9AAB221463046FFF7AAFF024638B919
:100DE0002C442E4404F58073BB42EED93D1BEEE744
:100DF0006FF004021046F8BD10B594B0044600230D
:100E000000930193EB20029001200390049305933B
:100E100006914FF4407107914FF4005108910993E6
:100E20000B930D934FF040710E9110930F92062289
:100E300011921293139341F2883269460C4803F0E1
:100E4000A4F858B941F288322146094803F04BF919
:100E500038B9FFF753FE38B914B010BD6FF0040075
:100E6000FAE76FF00400F7E76FF00200F4E700BF65
:100E70007C02012470B582B001F000FB0446002022
:100E8000FFF722FF624D287001F0F8FA011B2B7862
:100E900023B9604801F0F8F900230BE019465E48D9
:100EA00001F0F2F95A4B93F9000002B070BD5B4AB1
:100EB000D3540133B3F5004FF9D301F0DFFA044600
:100EC0004FF4004200215548FFF774FF504D287041
:100ED00001F0D4FA021B07EE902AF8EE677ADFEDF4
:100EE000506A86EEA77A297861BBB7EEC77A8DED96
:100EF000007B20214B4801F0C7F901F0BFFA0446FE
:100F00004FF4004200214848FFF776FF287001F0B7
:100F1000B5FA021B07EE902AB8EE677ADFED436A56
:100F2000C6EE877A9FED427A67EE877A297881B993
:100F3000B7EEE77A8DED007B20213E4801F0A4F961
:100F400000210EE03C4801F09FF9314B93F900007D
:100F5000ABE73A4801F098F92D4B93F90000A4E76C
:100F60000131B1F5004F0CD22C4B5A5C2E4B5B5C1F
:100F70009A42F5D0324801F087F9254B93F90000E9
:100F800093E7304801F080F92F4801F07DF92F48B0
:100F900001F07AF92E4801F077F92E4801F074F942
:100FA00001F06CFA064600252C460AE04FF4004298
:100FB00029461D48FFF720FF154B187005F5004521
:100FC0000134FF2CF2D901F059FA821B07EE902A66
:100FD000F8EE677AF2EE006A86EEA77ADFED147A11
:100FE00027EE277A0A4B197859B9B7EEC77A8DEDF3
:100FF000007B0821184801F047F90020044B1870C5
:1010000053E70E4801F040F9014B93F900004CE71B
:1010100078020124B0000108F00001087882002461
:10102000000000471C010108780200240000003D78
:1010300000007A44940101086C010108E8010108EC
:10104000100201084002010874020108E0020108D0
:101050006C030108D0030108E803010800B587B05C
:101060000023019302930393049305930093224872
:10107000224A026043607F228260FF22C2600361D5
:101080008361C361436105F071FE40BB00238DF8AD
:1010900004308DF805308DF8063004930593012255
:1010A00001A9154805F0C0FEE0B902238DF8003013
:1010B00005238DF8013001228DF8022019238DF8C7
:1010C000033069460C4805F013FF70B90022114641
:1010D000094805F0ACFF58B907B05DF804FBFFF70D
:1010E0007DFBD3E7FFF77AFBDFE7FFF777FBEDE761
:1010F000FFF774FBF0E700BFDC020124004000585A
:1011000010B5AEB00446B822002168460CF0DEFAF5
:1011100022680D4B9A4201D02EB010BD4FF48002D0
:101120000023CDE900234FF480732C93684604F02C
:1011300089FA28B9054A136F43F400431367EBE7B4
:10114000FFF74CFBF6E700BF004000580044025890
:1011500038B5054600240B2C09DC0322064B53F856
:10116000241028460CF0BAFA18B10134F3E74FF016
:10117000FF34204638BD00BF401B0108022901DCB6
:101180000C31013802EB4103013101EB4101124AFC
:1011900082FB01C2C917C1EB62010B440344024642
:1011A000002817DB03EBA2030C4A82FB0012C017D6
:1011B000A0EB62110B44C0EBE2100344084A82FB2F
:1011C00003121A44D817C0EBA200C0EBC000181AD3
:1011D00001307047C21CE5E7676666661F85EB5104
:1011E0009324499270B588B00024069403AE05ABF1
:1011F000009304AB32461A491A480CF0B9F9059B22
:10120000194A82FB0312DD17C5EB6215642202FB4B
:1012100015358DF81B503046FFF79AFF411CC9B2B7
:101220008DF81910049A8DF81A20D2B2E8B2FFF79F
:10123000A5FF8DF81800069B079320469DF81C30EB
:1012400063F307009DF81D3063F30F209DF81E30F7
:1012500063F317409DF81F3063F31F6008B070BD43
:101260003C040108480401081F85EB5110B586B005
:1012700004460023036043608360C360036103ABE3
:10128000009304AB05AA064906480CF071F9059BCA
:101290002370049B6370039BA370204606B010BDAF
:1012A000540401086004010884B010B582B00190B4
:1012B00005A880E80E00084C00220146204605F0F3
:1012C000B3FD002201A9204605F012FE02B0BDE8E0
:1012D000104004B0704700BFDC020124054B064AF1
:1012E0001A6000225A609A604FF48041D9601A61F6
:1012F0005A61704700030124007000522DE9F0414B
:10130000B8B004460021339134913591369137912C
:10131000B82204A80CF0DAF922682F4B9A4202D0C6
:1013200038B0BDE8F0814FF480320023CDE90423CA
:1013300004A804F087F900284AD1284BD3F8D42018
:1013400042F48032C3F8D420D3F8D42002F480329F
:101350000192019AD3F8E02042F00402C3F8E020A1
:10136000D3F8E02002F004020292029AD3F8E020BF
:1013700042F00802C3F8E020D3F8E03003F008039D
:101380000393039B4FF4F85333934FF00208CDF8C7
:10139000D08000243594032736970C26379633AD3A
:1013A00029460F4802F05EFB04233393CDF8D0802A
:1013B00035943697379629460A4802F053FB224661
:1013C0000E21312001F0C6F8312001F0D3F8A7E753
:1013D000FFF704FAB1E700BF007000520044025862
:1013E00000080258000C025808B51548154B036058
:1013F0004FF4800343604FF4C02383600723C3602E
:101400000023036143614FF000528261C3610362B4
:1014100043628362C3624FF080424263836320224F
:10142000C263036443648364C36403654365836583
:1014300006F01EFE00B908BDFFF7D0F9FBE700BFBC
:10144000F40301240014005830B5B7B0044600215D
:1014500031913291339134913591B82202A80CF038
:1014600035F922682E4B9A4201D037B030BD4FF487
:1014700080420023CDE9022302A804F0E3F800280B
:1014800047D1284BD3F8F42042F02002C3F8F420CF
:10149000D3F8F42002F020020092009AD3F8E02062
:1014A00042F04002C3F8E020D3F8E03003F04003FC
:1014B0000193019B4FF4C2433193022332930025E1
:1014C0003395032334930523359331A9164802F04D
:1014D000C9FA1648164B03600C234360402383600F
:1014E000C5604FF48063036145618561C5614FF458
:1014F0004033036201F096F970B90C4BA3679C630B
:1015000000220521562001F025F8562001F032F87E
:10151000ABE7FFF763F9B4E7FFF760F9EDE700BF6A
:101520000014005800440258001802587C0301249B
:101530000854025800B583B08DF8070000224FF41C
:101540000041074802F098FB4FF47A7301220DF135
:1015500007010448006806F053FE03B05DF804FB81
:10156000001802587C05012400B583B08DF80700EF
:1015700001224FF40041074802F07EFB4FF47A73DA
:1015800001220DF107010448006806F039FE03B09E
:101590005DF804FB001802587C05012410B582B0E8
:1015A000044601224FF40041084802F065FB230A7B
:1015B0008DF804308DF805404FF47A73022201A9AA
:1015C0000348006806F01CFE02B010BD0018025867
:1015D0007C05012470B505460E4601224FF40041FA
:1015E0000A4802F049FB0A4C20680F23C36006F04A
:1015F0003FFD4FF47A7332462946206806F000FE1C
:1016000020680723C36006F033FD70BD0018025840
:101610007C0501242DE9F04180460E4617461D4603
:101620002A20FFF787FF0F4CA37C03EB080080B252
:10163000FFF7B4FFA07C384480B2FFF7AFFF2B2048
:10164000FFF778FFE07C304480B2FFF7A7FFE07C33
:10165000284480B2FFF7A2FF2C20FFF76BFFBDE804
:10166000F08100BF7C050124C0F30F2303F478430D
:10167000C0F34F1202F4FC62C0F3C40013431843DA
:10168000014B5860704700BF7C050124C0F30F2355
:1016900003F47843C0F34F1202F4FC62C0F3C400B9
:1016A00013431843014B9860704700BF7C05012429
:1016B00008B5214B5873032810D8DFE800F0021E4C
:1016C000102D3620FFF736FF7020FFF74DFF1A4B25
:1016D00000229A74DA74F022DA811A8208BD362068
:1016E000FFF728FF0020FFF73FFF134B00229A74FB
:1016F000DA74F022DA811A82F0E73620FFF71AFF57
:10170000A020FFF731FF0C4B50229A740022DA74AC
:10171000F022DA811A82E1E73620FFF70BFFC020C2
:10172000FFF722FF044B00229A745022DA74F02251
:10173000DA811A82D2E700BF7C050124014B58618F
:10174000704700BF7C0501242DE9F8438846A2F1CB
:101750002007FFB200239C461E4623E0244CA168CC
:101760000CF10C0904EB4904A1804FEA5E0E0CF168
:10177000010C1FFA8CFC01339BB2AC889C420ED04A
:10178000013292B2072A0BD81EF0010FE6D0184C96
:1017900061680CF10C0904EB4904A180E5E7002322
:1017A0000136B6B2124A55692C89B44206D92A6864
:1017B00004FB076412F804E00022E3E7AA8802446D
:1017C00092B2EB8843449BB2013B013A9BB292B286
:1017D0004146FFF71FFF064843699988DB8811FBE4
:1017E00003F189B21C30FFF7F5FEBDE8F88300BFB6
:1017F0007C0501242DE9F8438846002604E00236E2
:10180000B6B26389B34210D92E4B9C6925682389EF
:1018100006FB033315F803C01778BC45EFD101333D
:10182000ED5C53789D42EAD100E0002600231F467C
:101830009C4623E0234DA9680CF10C0905EB4905F2
:10184000A9800CF1010C1FFA8CFC4FEA5E0E0133EB
:101850009BB2A5889D420ED0013292B2072A0BD8C6
:101860001EF0010FE6D0174D69680CF10C0905EB6D
:101870004905A980E5E700230137BFB22589BD42AC
:1018800006D9226805FB067512F805E00022E5E797
:10189000A288024492B2E38843449BB2013B013ADE
:1018A0009BB292B24146FFF7B5FE0648836999881C
:1018B000DB8811FB03F189B21C30FFF78BFEBDE81A
:1018C000F88300BF7C05012470B505460E4614461A
:1018D0000AE0224631462846FFF78CFF0B4B9B69F6
:1018E0009B882B449DB2033422786AB112F0800F9A
:1018F000EFD131462846FFF727FF044B5B699B88F1
:101900002B449DB20134EFE770BD00BF7C0501247C
:10191000014B1873704700BF7C0501242DE9F84383
:1019200080460F4616469946089D00E0BDB1D8F89E
:1019300000305C6937EA04040CBF01230023B34282
:101940000AD100F09BFDA0EB0900A842EED3B5F14F
:10195000FF3FEBD0032000E00020BDE8F883032028
:10196000FBE7000010B402685369916941F0080177
:10197000916101688A6942F010028A6101680A680F
:1019800022F001020A6001680C69284A22400A61BB
:1019900001688A6822F440428A6090F88120042A13
:1019A0000DD013F0200F0AD0D0F8842042F080022E
:1019B000C0F8842001688A6942F020028A6190F8A8
:1019C0008120032A0DD013F0400F0AD0D0F88420D4
:1019D00042F00402C0F8842001688A6942F04002A3
:1019E0008A6113F4007F0AD0D0F8842042F001020B
:1019F000C0F8842001688A6942F400728A6113F495
:101A0000807F0AD0D0F8843043F00803C0F88430D7
:101A10000268936943F4807393610023A0F86230F5
:101A2000A0F86A305DF8044B704700BF90FCFFFFE0
:101A30002DE9F04383B090F88030012B00F0A880AE
:101A400004460E461546012380F8803000F016FD4E
:101A5000074694F881305FFA83F8012B2CD10323D9
:101A600084F881300023C4F88430AAB2A4F860203E
:101A7000A4F8622006EB06496366A4F86830A4F86F
:101A80006A30636723672268136843F40063136056
:101A9000226853686FF30F0353602268136843F0A2
:101AA000010313606368B3F5800F10D122681368D7
:101AB00043F4007313600AE0002384F880304FF091
:101AC0000208404603B0BDE8F0831684013D1DB313
:101AD0002268536913F0020F08D0012DF5D9E36B8A
:101AE000002BF2D0C2F82090023DF0E700F0C6FCD7
:101AF000C01BB0F57A7FEAD32046FFF733FF0023FF
:101B000084F88030D4F8843043F48073C4F884308F
:101B1000012384F88130D4E74FF47A7300933B4675
:101B200000224FF480512046FFF7F8FE28B1D4F888
:101B3000843043F02003C4F884302268136843F4EF
:101B4000806313604FF47A7300933B4600224FF496
:101B500000612046FFF7E2FE28B1D4F8843043F05C
:101B60002003C4F884302046FFF7FCFE2268936906
:101B700043F400639361002384F88030012384F8E8
:101B80008130D4F88430002B9BD14FF0000898E7C7
:101B90004FF0020895E7000010B5124CE289238A45
:101BA000013B013A9BB292B200210846FFF732FD99
:101BB00001224FF400410C4802F05EF820680F2328
:101BC000C36006F055FAE389228A03FB02F22189F9
:101BD0002068FFF72DFF20680723C36006F048FA4E
:101BE00010BD00BF7C0501240018025808B56B4BDE
:101BF0006B4A1A600A2000F047FC3620FFF79AFC77
:101C00000020FFF7B1FC3A20FFF794FC0520FFF716
:101C1000ABFCB220FFF78EFC0C20FFF7A5FC0C20DC
:101C2000FFF7A2FC0020FFF79FFC3320FFF79CFC8E
:101C30003320FFF799FCB720FFF77CFC3520FFF736
:101C400093FCBB20FFF776FC1920FFF78DFCC0202A
:101C5000FFF770FC2C20FFF787FCC220FFF76AFC1F
:101C60000120FFF781FCC320FFF764FC1220FFF77F
:101C70007BFCC420FFF75EFC2020FFF775FCC6202C
:101C8000FFF758FC0F20FFF76FFCD020FFF752FC46
:101C9000A420FFF769FCA120FFF766FCE020FFF716
:101CA00049FCD020FFF760FC0420FFF75DFC0D200D
:101CB000FFF75AFC1120FFF757FC1320FFF754FCE5
:101CC0002B20FFF751FC3F20FFF74EFC5420FFF77D
:101CD0004BFC4C20FFF748FC1820FFF745FC0D207B
:101CE000FFF742FC0B20FFF73FFC1F20FFF73CFCF7
:101CF0002320FFF739FCE120FFF71CFCD020FFF781
:101D000033FC0420FFF730FC0C20FFF72DFC1120E2
:101D1000FFF72AFC1320FFF727FC2C20FFF724FCF9
:101D20003F20FFF721FC4420FFF71EFC5120FFF766
:101D30001BFC2F20FFF718FC1F20FFF715FC1F20AE
:101D4000FFF712FC2020FFF70FFC2320FFF70CFC0D
:101D50002120FFF7EFFB1120FFF7ECFB782000F0CC
:101D600093FB2920FFF7E6FB0220FFF7A1FC0020F0
:101D7000FFF78CFC6FF07F40FFF776FCFFF70CFF5E
:101D80000848FFF7DBFC0020FFF7C2FD01224FF4FB
:101D90008051054801F070FF08BD00BF7C0501249B
:101DA000F40301240C000024001802580CB470B590
:101DB00082B004460D4606AB53F8042B0193094E3E
:101DC0004FF4807130460BF073FC80B20023335423
:101DD0003246A9B2A0B2FFF777FD02B0BDE870406D
:101DE00002B070477C04012400B583B00A4BD3F8DD
:101DF000F42042F00202C3F8F420D3F8F43003F0E8
:101E000002030193019B00220F216FF0010000F0FB
:101E1000A1FB03B05DF804FB004402580F2801D970
:101E20000120704710B58AB00446002201463620D2
:101E300000F090FB362000F09DFB1A4B1C601A4B03
:101E4000D3F8E82042F01002C3F8E820D3F8E830D5
:101E500003F010030093009B01A902A803F0C0FA4D
:101E6000079BBBB903F098FA0346104AA2FB032371
:101E70009B0C013B0E480F4A026040F2E732C26001
:101E8000436000230361836006F0F0FD30B1012060
:101E90000AB010BD03F080FA4300E6E7044806F0FC
:101EA00043FCF5E7240000240044025883DE1B4372
:101EB000980D012400100040FEE7FEE7FEE7FEE774
:101EC000FEE7704708B5024801F04EF908BD00BFB3
:101ED000600E012408B5024801F046F908BD00BFB4
:101EE000E80D012408B5024806F060FF08BD00BFF8
:101EF000D80E012408B5024805F012FF08BD00BF46
:101F00000003012408B5024806F062FC08BD00BFCA
:101F1000980D012408B5024806F0E4FA08BD00BF98
:101F2000F403012408B5024801F01EF908BD00BF02
:101F30007C0301240120704708B50BF099FC16239F
:101F400003604FF0FF3008BD08B54FF0FF31FFF7D9
:101F5000F3FFFEE770B50C461646002506E0AFF32A
:101F60000080214601F8010B01350C46B542F6DB35
:101F7000304670BD70B50C461646002504E014F8D6
:101F8000010BAFF300800135B542F8DB304670BD80
:101F90004FF0FF3070474FF400534B600020704704
:101FA000012070470020704710B503460C4A0D49C8
:101FB0000D48006840B10C4800680344521A93422F
:101FC00006D8094A136010BD0748084C0460F2E7C0
:101FD0000BF04EFC0C2303604FF0FF30F3E700BF23
:101FE0000000052400040000E40D0124E85C012445
:101FF0002B4AD2F8883043F47003C2F88830294B5A
:102000001B6803F00F03062B06D8264A136823F03B
:102010000F0343F007031360234B1A6842F00102D9
:102020001A6000221A611968204A0A401A601D4B82
:102030001B6813F0080F06D01A4A136823F00F0329
:1020400043F007031360184B00229A61DA611A62A9
:10205000174999621749D962174919635A639963F5
:10206000DA6319645A64196821F4802119601A66C8
:10207000D3F8D43013F4805F10D10B4BD3F8D420B5
:1020800042F48052C3F8D4200C4A43F2D2011160CA
:10209000D3F8D42022F48052C3F8D420704700BF74
:1020A00000ED00E000200052004402587FEDF6EA07
:1020B000000202020000FF01800201010040005204
:1020C000054AD36843F00203D360034B5B6813F403
:1020D000005FFAD0704700BF0048025808B51D489D
:1020E0001D4B03604FF4E133436000238360C36002
:1020F00003610C2242618361C361036243628362B4
:1021000007F0B7FCC8B90021124807F02DFDB8B997
:102110000021104807F04DFDA8B90E4807F005FD55
:10212000A0B90E4B0B4A1A6000221A7183F80421E1
:10213000A3F80422A3F8062208BDFEF74FFBE2E74E
:10214000FEF74CFBE4E7FEF749FBE6E7FEF746FB4C
:10215000E7E700BFD80E0124001001406C0F0124F6
:1021600030B5B7B0044600213191329133913491AA
:102170003591B82202A80BF0A9FA22683B4B9A428B
:1021800001D037B030BD01220023CDE9022302A8DF
:1021900003F058FA002860D1354BD3F8F02042F014
:1021A0001002C3F8F020D3F8F02002F010020092E1
:1021B000009AD3F8E02042F00102C3F8E020D3F8FF
:1021C000E03003F001030193019B4FF4C0633193AE
:1021D000022332930025339534950723359331A993
:1021E000244801F03FFC2448244B0360292343602A
:1021F0008560C5604FF48063036145618561C56199
:102200004FF400330362456200F00CFB40BB1A4BF5
:10221000C4F880309C631A481A4B03602A23436039
:10222000402383600023C3604FF4806202614361F6
:102230008361C3614FF400320262436200F0F2FA3C
:1022400088B90F4BE3679C6300220521252000F02D
:1022500081F9252000F08EF993E7FEF7BFFA9BE79E
:10226000FEF7BCFAD3E7FEF7B9FAEAE7001001403F
:102270000044025800000258600E01241000024081
:10228000E80D0124280002400FB410B582B004AB61
:1022900053F8042B01930F4C4FF4807120460BF040
:1022A00007FA82B2231FA4F80022134400211971F7
:1022B000214654F8040C06F007FD074B1B681B6809
:1022C000DB6913F0400FF8D002B0BDE8104004B055
:1022D000704700BF700F01246C0F0124DFF838D065
:1022E000FFF7EEFEFFF784FE0C480D490D4A002370
:1022F00002E0D458C4500433C4188C42F9D30A4ABB
:102300000A4C002301E013600432A242FBD30BF01D
:10231000B5FAFEF7C3FA7047000005240000002458
:1023200010020024641F010810020024E45C012450
:10233000FEE708B510B10246002307E072B6FEF7CB
:102340004DFAFEE7002142F823100133012BF9D9A1
:102350000023137208BD08B590B10346027A012A22
:1023600012D8511C0172EFF311814FF0500080F32D
:102370001188BFF36F8FBFF34F8F43F8221008BD52
:1023800072B6FEF72BFAFEE772B6FEF727FAFEE703
:1023900008B550B1037A013BDBB20372012B08D8B8
:1023A00050F8233083F3118808BD72B6FEF716FA91
:1023B000FEE772B6FEF712FAFEE710B540B104462A
:1023C0000C200AF025FB206038B1FFF7B2FF10BDEA
:1023D0000BF04EFA16230360F9E772B6FEF7FEF92A
:1023E000FEE708B510B1FFF7B6FF08BD72B6FEF7FD
:1023F000F5F9FEE708B510B1FFF7CAFF08BD72B6E0
:10240000FEF7ECF9FEE7000010B5032000F090F8AD
:1024100002F05AFD0F498B69C3F303230E4AD35CC4
:1024200003F01F03D8408B6903F00F03D35C03F064
:102430001F0320FA03F3094A1360094B18600F20A9
:10244000FFF7ECFC10B10124204610BD0446FFF755
:10245000CBFCF9E700440258701B01081800002467
:102460001C000024034B1B78034A11680B441360C3
:10247000704700BF200000248C110124014B186814
:10248000704700BF8C11012438B50446FFF7F6FFF2
:102490000546B4F1FF3F02D0044B1B781C44FFF704
:1024A000EDFF401BA042FAD338BD00BF200000243E
:1024B000002807DB00F01F02400901239340024A75
:1024C00042F82030704700BF00E100E0002804DB44
:1024D0000901C9B2044B1954704700F00F000901FB
:1024E000C9B2024B1954704700E400E014ED00E05B
:1024F00000B500F00700C0F1070CBCF1040F28BFC5
:102500004FF0040C031D062B0FD9C31E4FF0FF3EE6
:102510000EFA0CF021EA000199400EFA03FE22EABD
:102520000E0241EA02005DF804FB0023EEE7000022
:102530000649CB6823F4E0631B041B0C000200F483
:10254000E0600343024A1A43CA60704700ED00E0AE
:102550000000FA0510B50446054BD868C0F3022008
:10256000FFF7C6FF01462046FFF7B0FF10BD00BFD2
:1025700000ED00E008B5FFF79BFF08BDBFF35F8FDC
:10258000044B5A6A22F480325A620022C3F8942023
:10259000704700BF00ED00E040F00100054BC3F8BC
:1025A00094005A6A42F480325A62BFF34F8FBFF3ED
:1025B0006F8F704700ED00E003682749274A934278
:1025C00018BF8B422FD0183293422CD0183293422E
:1025D00029D01832934226D01832934223D0183291
:1025E000934220D0183293421DD002F55672934286
:1025F00019D01832934216D01832934213D01832A1
:10260000934210D0183293420DD0183293420AD020
:102610001832934207D01832934204D023F0FF03BC
:102620008365806D704710B4D9B210390C4AA2FB93
:102630000142C2F302120B4CA25CC2655F2907D9AA
:102640006FF3090304338365806D5DF8044B7047B5
:102650006FF309038365F7E710000240280002408A
:10266000ABAAAAAA801B010883699BB9836A012BC4
:102670000AD0022B02D00BB100207047C36A13F0BE
:10268000807F2AD100207047C36AB3F1C07F26D073
:1026900000207047B3F5005F0AD0836A022B26D969
:1026A000032B26D1C36A13F0807F24D1002070470A
:1026B000836A032B03D8DFE803F01404140A002014
:1026C0007047C36A13F0807F0DD100207047C36A42
:1026D000B3F1C07F09D0002070470120704701206E
:1026E000704701207047012070470120704701208A
:1026F000704700207047012070470000036821499F
:10270000214A934218BF8B4227D01432934224D0DF
:102710001432934221D0143293421ED01432934289
:102720001BD01432934218D01432934215D0DAB22F
:10273000103A1649A1FB0212120915491944A82999
:102740001ED9144B13449B000366134B436602F0DF
:102750001F020123934083667047DBB2083B0F4A98
:10276000A2FB03230E4A02EB1312920002660D4AEB
:102770004266C3F30413012202FA03F3836670472F
:102780000832DEE7085402581C540258ABAAAAAA21
:10279000F0FBFDBF0082001080080240CDCCCCCC05
:1027A000009600168058025801794A1E072A2BD835
:1027B00030B40368154D164CA34218BFAB4218D075
:1027C0001434A34215D01434A34212D01434A342BB
:1027D0000FD01434A3420CD01434A34209D01434C3
:1027E000A34206D00B4B0B449B00C3660A4B036706
:1027F00005E00A4B0B449B00C366094B03670123AA
:102800009340436730BC7047704700BF085402587C
:102810001C5402583F820010400902403F960016A7
:102820004059025870B50446FFF728FE002C00F00E
:10283000B781054623685349534A934218BF8B42D8
:102840000CBF0121002150D0183293424DD01832D4
:1028500093424AD01832934247D01832934244D020
:102860001832934241D0183293423ED002F556724C
:1028700093423AD01832934237D01832934234D030
:102880001832934231D0183293422ED018329342EC
:102890002BD01832934228D01832934225D03B498E
:1028A0003B4A934218BF8B4200F03281394A93422F
:1028B00000F02E811432934200F02A8114329342A8
:1028C00000F026811432934200F0228114329342A8
:1028D00000F01E811432934200F01A814023636598
:1028E000032384F8353001204AE0022284F83520A1
:1028F000002284F8342079BB274A93422CD0183226
:10290000934229D01832934226D01832934223D0D2
:102910001832934220D0183293421DD002F55672DD
:10292000934219D01832934216D01832934213D0E2
:102930001832934210D0183293420DD0183293427D
:102940000AD01832934207D01832934204D01A6842
:1029500022F001021A6003E01A6822F001021A60F4
:1029600023681A6812F0010F18D0FFF787FD431B88
:10297000052BF5D920236365032384F83530012026
:1029800070BD00BF100002402800024008540258E9
:102990001C54025830540258400002401A688149C1
:1029A0001140A268E0680243206902436069024363
:1029B000A0690243E0690243206A02430A43616A54
:1029C000042900F090806168522900F296803F2926
:1029D000C0F08E803F39744820FA01F111F0010FE8
:1029E00001D042F480121A602668756925F0070547
:1029F000636A1D43042B08D1A36A1D43E36A23B114
:102A00002046FFF731FE00287CD175612046FFF794
:102A1000D3FDE36D03F01F023F23934083602368DF
:102A20006249634A934218BF8B4242D018329342A4
:102A30003FD0183293423CD01832934239D01832EA
:102A4000934236D01832934233D01832934230D06A
:102A500002F5567293422CD01832934229D0183284
:102A6000934226D01832934223D01832934220D07A
:102A7000183293421DD0183293421AD01832934222
:102A800017D04C4A934214D01432934211D01432CE
:102A900093420ED0143293420BD01432934208D09A
:102AA0001432934205D01432934202D0143293422E
:102AB00013D12046FFF722FEA368802B63D0236E3C
:102AC00022791A60636EA26E5A606368013B072B1D
:102AD0005CD90023E36623676367002060650123F8
:102AE00084F835304CE7E16A206B01430A436AE71A
:102AF000293905293FF677AF73E7743903293FF683
:102B000072AF6EE740236365012084F8350037E734
:102B1000022284F83520002284F8342019686FF3EB
:102B20001011A268402A2CD0802A27D00022E06809
:102B300042EAD002206942EAD002606942EAD00249
:102B4000A06942EAD002E06942EAD002206A42EA81
:102B500010120A431A602268174B1344174AA2FB4B
:102B600003231B099B00E3652046FFF725FDE26D6B
:102B700002F01F0101228A40426050E74FF4804278
:102B8000D5E71022D3E70023636098E72046FFF7DC
:102B90000BFEE36E00221A60236F626F5A609CE79F
:102BA0000120EDE63F8010FE0F030F0010000240F1
:102BB0002800024008540258F8ABFDA7CDCCCCCC7D
:102BC00070B50446FFF75AFC002C00F08F810546D3
:102BD00094F83530022B06D080236365002384F8F7
:102BE0003430012070BD23688B498C4A934218BF52
:102BF0008B4230D0183293422DD0183293422AD0D3
:102C00001832934227D01832934224D0183293427C
:102C100021D0183293421ED002F5567293421AD038
:102C20001832934217D01832934214D0183293427C
:102C300011D0183293420ED0183293420BD0183272
:102C4000934208D01832934205D01A6822F00E023F
:102C50001A60266809E01A6822F01E021A602268CB
:102C6000536923F080035361266823686A496B4ADD
:102C7000934218BF8B4242D0183293423FD0183251
:102C800093423CD01832934239D01832934236D016
:102C90001832934233D01832934230D002F5567234
:102CA00093422CD01832934229D01832934226D026
:102CB0001832934223D01832934220D018329342D4
:102CC0001DD0183293421AD01832934217D0544A6A
:102CD000934214D01432934211D0143293420ED046
:102CE000143293420BD01432934208D014329342E0
:102CF00005D01432934202D01432934204D1226E92
:102D0000136823F48073136023684349434A934252
:102D100018BF8B422FD0183293422CD018329342D6
:102D200029D01832934226D01832934223D0183239
:102D3000934220D0183293421DD002F5567293422E
:102D400019D01832934216D01832934213D0183249
:102D5000934210D0183293420DD0183293420AD0C9
:102D60001832934207D01832934204D01A6822F0E6
:102D700001021A6003E01A6822F001021A60336847
:102D800013F0010F0ED0FFF779FB431B052BF6D98B
:102D900020236365032384F83530002384F834301E
:102DA00001201FE723681C491C4A934218BF8B422D
:102DB00038D01832934235D01832934232D018327C
:102DC00093422FD0183293422CD01832934229D0FC
:102DD0001832934226D002F55672934222D018320E
:102DE00093421FD0183293421CD01832934219D00C
:102DF0001832934216D01832934213D018329342AD
:102E000010D0183293420DD0A16DE36D03F01F0274
:102E1000012393404B600CE0100002402800024068
:102E200008540258A16DE36D03F01F023F23934045
:102E30008B6023682E492F4A934218BF8B4242D0A1
:102E4000183293423FD0183293423CD0183293420A
:102E500039D01832934236D01832934233D01832D8
:102E6000934230D002F5567293422CD018329342DE
:102E700029D01832934226D01832934223D01832E8
:102E8000934220D0183293421DD0183293421AD068
:102E90001832934217D0184A934214D014329342F6
:102EA00011D0143293420ED0143293420BD014320C
:102EB000934208D01432934205D01432934202D088
:102EC000143293420BD1636EA26E5A60E36E33B13B
:102ED0001A6822F480721A60236F626F5A600123AD
:102EE00084F83530002084F834007BE6012079E650
:102EF000100002402800024008540258002800F048
:102F0000278108B5024690F83530022B03D0802384
:102F10004365012008BD03688F4890498B4218BF64
:102F200083420CBF0120002065D018318B4262D053
:102F300018318B425FD018318B425CD018318B42F4
:102F400059D018318B4256D018318B4253D001F5ED
:102F500056718B424FD018318B424CD018318B4276
:102F600049D018318B4246D018318B4243D01831AA
:102F70008B4240D018318B423DD018318B423AD031
:102F8000196821F00E0119601368734873498B4268
:102F900018BF83426AD072498B4267D018318B4286
:102FA00064D018318B4261D018318B425ED0183119
:102FB0008B425BD018318B4258D001F556718B4251
:102FC00054D018318B4251D018318B424ED0183129
:102FD0008B424BD018318B4248D018318B4245D0B0
:102FE00018318B4242D018318B423FD0196821F002
:102FF000010119603EE0042182F8351080BB584A77
:1030000093422DD0183293422AD01832934227D0BF
:103010001832934224D01832934221D0183293426E
:103020001ED002F5567293421AD01832934217D02E
:103030001832934214D01832934211D0183293426E
:103040000ED0183293420BD01832934208D0183267
:10305000934205D01A6822F001021A60002059E755
:103060001A6822F001021A60002053E7196821F063
:10307000010119601368384838498B4218BF8342F0
:1030800042D018318B423FD018318B423CD018319E
:103090008B4239D018318B4236D018318B4233D025
:1030A00018318B4230D001F556718B422CD018313B
:1030B0008B4229D018318B4226D018318B4223D035
:1030C00018318B4220D018318B421DD018318B42E1
:1030D0001AD018318B4217D022498B4214D01431A8
:1030E0008B4211D014318B420ED014318B420BD055
:1030F00014318B4208D014318B4205D014318B42ED
:1031000002D014318B4217D1116E0B6823F48073F7
:103110000B60906DD36D03F01F0101238B40436062
:10312000536E916E5960D36E33B1196821F480717A
:103130001960136F516F5960012382F835300023F5
:1031400082F83430136D2BB1104698470020E1E629
:10315000012070470020DDE61000024028000240F8
:103160004000024008540258F0B583B004460023E2
:1031700001937D4B1D687D4BA3FB0535AD0A876D23
:103180003E68D7F800C0036879497A48834218BF7F
:103190008B420CBF0120002061D0774A93425ED061
:1031A000183293425BD01832934258D0183293426F
:1031B00055D01832934252D0183293424FD002F574
:1031C000567293424BD01832934248D018329342F1
:1031D00045D01832934242D0183293423FD0183231
:1031E00093423CD01832934239D01832934236D0B1
:1031F0006249634A934218BF8B4212D0614A93429C
:103200000FD0143293420CD01432934209D01432AE
:10321000934206D01432934203D01432934240F0CA
:103220005F821A68E16D01F01F010420884010EAF6
:103230000C0F00F0A58212F0040F00F0A18278605C
:1032400012F4004F00F0588212F4803F40F04E829A
:10325000A36C002B00F044822046984740E2E26DC8
:1032600002F01F0108228A40324241D070BB424A1C
:1032700093422BD01832934228D01832934225D053
:103280001832934222D0183293421FD01832934200
:103290001CD002F55672934218D01832934215D0C2
:1032A0001832934212D0183293420FD01832934200
:1032B0000CD01832934209D01832934206D01832FB
:1032C000934203D01A68C2F3C00202E01A68C2F344
:1032D00080026AB11A6822F004021A60E36D03F0FA
:1032E0001F0208239340BB60636D43F001036365D5
:1032F000E26D02F01F0226FA02F313F0010F47D02D
:1033000023681B481B498B4218BF83423CD01831AD
:103310008B4239D018318B4236D018318B4233D0A2
:1033200018318B4230D018318B422DD018318B425E
:103330002AD001F556718B4226D018318B4223D00A
:1033400018318B4220D018318B421DD018318B425E
:103350001AD018318B4217D018318B4214D0183143
:103360008B4211D01B6813E01C000024B5814E1B5A
:103370001000024028000240400002400854025859
:103380001C540258305402585B6913F0800F3BD133
:10339000E36D03F01F03042202FA03F333423FD02C
:1033A0002268954895498A4218BF824234D0183124
:1033B0008A4231D018318A422ED018318A422BD01D
:1033C00018318A4228D018318A4225D018318A42D1
:1033D00022D001F556718A421ED018318A421BD084
:1033E00018318A4218D018318A4215D018318A42D1
:1033F00012D018318A420FD018318A420CD01831BD
:103400008A4209D013680BE001239340BB60636DCF
:1034100043F002036365BBE7126812F0020F3DD16F
:10342000E36D03F01F03102202FA03F333425FD06F
:103430002268714871498A4218BF824234D01831DB
:103440008A4231D018318A422ED018318A422BD08C
:1034500018318A4228D018318A4225D018318A4240
:1034600022D001F556718A421ED018318A421BD0F3
:1034700018318A4218D018318A4215D018318A4240
:1034800012D018318A420FD018318A420CD018312C
:103490008A4209D01268C2F3800208E0BB60636D03
:1034A00043F004036365BBE71268C2F3C002FAB1DC
:1034B000BB6023681A6812F4802F0DD01B6813F4C8
:1034C000002F04D1236C9BB12046984710E0A36CD9
:1034D00073B1204698470BE01A6812F4807F03D13D
:1034E0001A6822F008021A60236C0BB12046984734
:1034F000E36D03F01F03202202FA03F3334200F0CE
:10350000918022683C483D498A4218BF82422ED0B1
:1035100018318A422BD018318A4228D018318A4279
:1035200025D018318A4222D018318A421FD0183152
:103530008A421CD001F556718A4218D018318A424D
:1035400015D018318A4212D018318A420FD0183162
:103550008A420CD018318A4209D018318A4206D0EA
:1035600018318A4203D01268C2F3400202E01268A6
:10357000C2F30012002A55D0BB6094F83530042BFA
:103580000ED023681A6812F4802F39D01B6813F408
:10359000002F2CD1636C002B44D02046984741E08B
:1035A0002268136823F0160313602268536923F01E
:1035B00080035361236CB3B12268136823F00803BE
:1035C0001360E36D03F01F023F239340BB600123B0
:1035D00084F83530002384F83430236D002B7FD0FD
:1035E000204698477CE0A36C002BE5D1E9E7E36B2C
:1035F000C3B12046984715E0100002402800024061
:103600001A6812F4807F09D11A6822F010021A6039
:10361000012384F83530002384F83430E36B0BB198
:1036200020469847636D002B5AD0636D13F0010F4D
:1036300052D0042384F8353023689649964A934241
:1036400018BF8B422FD0183293422CD0183293429D
:1036500029D01832934226D01832934223D0183200
:10366000934220D0183293421DD002F556729342F5
:1036700019D01832934216D01832934213D0183210
:10368000934210D0183293420DD0183293420AD090
:103690001832934207D01832934204D01A6822F0AD
:1036A00001021A6003E01A6822F001021A60019B0D
:1036B00001330193AB4204D823681B6813F0010F58
:1036C000F5D123681B6813F0010F0BD0032384F896
:1036D0003530002384F83430E36C0BB12046984732
:1036E00003B0F0BD012384F83530F2E7236C002BE2
:1036F000F6D020469847F3E712F0200F3AD123681E
:103700006449654A934218BF8B422FD018329342C6
:103710002CD01832934229D01832934226D0183236
:10372000934223D01832934220D0183293421DD0B6
:1037300002F55672934219D01832934216D01832BD
:10374000934213D01832934210D0183293420DD0C6
:10375000183293420AD01832934207D0183293425B
:1037600004D01A6822F004021A6003E01A6822F0FA
:1037700008021A60236C002BB2D020469847AFE7AE
:103780000220884010EA0C0F60D012F0020F5DD0CA
:10379000786012F4004F0ED012F4803F05D1636CB4
:1037A000002B9DD0204698479AE7E36B002B97D0DB
:1037B0002046984794E712F0200F40D123683549FE
:1037C000354A934218BF8B422FD0183293422CD0E7
:1037D0001832934229D01832934226D0183293429D
:1037E00023D01832934220D0183293421DD002F5D4
:1037F0005672934219D01832934216D0183293421F
:1038000013D01832934210D0183293420DD0183290
:1038100093420AD01832934207D01832934204D010
:103820001A6822F00A021A6003E01A6822F01402F1
:103830001A60012384F83530002384F83430E36BB8
:10384000002B3FF44DAF2046984749E7082000FA87
:1038500001F111EA0C0F3FF443AF12F0080F3FF4EF
:103860003FAF1A6822F00E021A60E36D03F01F03E7
:10387000012202FA03F37B60626584F8352000239D
:1038800084F83430E36C002B3FF42AAF204698478D
:1038900026E700BF100002402800024000285AD04E
:1038A00010B5044690F82130002B42D0022384F852
:1038B000213023681A69002A4FD09A68002A4ED016
:1038C0006268002A38D11A6822F400121A60A368CC
:1038D000B3F5801F39D02268136823F48013136076
:1038E0002268136823F0FE43616943EA01631360B1
:1038F0002268136823F4702321690B431360226844
:10390000136823F47063E1680B4313602268536902
:103910009BB2A16943EA01435361226853696FF383
:103920000F03E1690B435361012384F82130002028
:1039300014E0FCF7E5FDB9E7A268B2F5801F10D1ED
:103940001A6842F400121A60C1E72268136843F44F
:1039500080131360C4E701207047012010BD0120CF
:10396000FCE70120FAE778B338B5044690F8213037
:10397000012B01D0022038BD022380F821300268DB
:10398000136843F001031360FEF778FD05462368D2
:103990001A6A12F4004F06D1FEF770FD401B012891
:1039A000F5D90320E7E71A6812F4706F04D00123F9
:1039B00084F821300020DEE71A6842F010021A6015
:1039C0000520FEF761FDF2E701207047F8B590F899
:1039D0002130012B43D104460D46DFB2022380F88B
:1039E00021300368DE69B6B2036993B18EB1826893
:1039F000B2F5801F12D1F0031B0CB0FBF3F022686C
:103A000093681B0C12D0012B23D0012384F82130A2
:103A100002E0012384F821303846F8BD02F02EFB85
:103A2000638A03FB00F0B0FBF6F0E8E71E2693681C
:103A30009BB2642101FB03F3126992B25AB1C01A1E
:103A400090FBF2F030442860012384F821300027F5
:103A5000E2E78226EBE7012384F82130DCE7022746
:103A6000DAE70000F0B583B000236BE085685E0004
:103A70000324B44025EA0405CC68B4402C43846098
:103A8000456825EA0C054C68C4F300149C402C439F
:103A9000446069E0DD08083550F8254003F0070C64
:103AA0004FEA8C0C4FF00F0E0EFA0CFE24EA0E0EAD
:103AB0000C6904FA0CF444EA0E0440F825406BE06B
:103AC000092400E0002404FA0EF42C430CF1020C4B
:103AD000664D45F82C404FF0B0442568D44325EAA4
:103AE00002064F6817F4801F01D042EA05064FF026
:103AF000B0452E606D6804EA05064F6817F4001F94
:103B000001D042EA05064FF0B0456E60D5F884500A
:103B100004EA05064F6817F4003F01D042EA0506A3
:103B20004FF0B045C5F88460D5F880502C404E6801
:103B300016F4803F01D042EA05044FF0B042C2F8CB
:103B4000804001330A6832FA03F400F08C804FF0B1
:103B5000010C0CFA03FC1CEA0202F2D04C6804F0DF
:103B60000304013C012C81D94C6804F00304032CAC
:103B70000CD0C4685D004FF0030C0CFA05FC24EA7D
:103B80000C0C8C68AC4044EA0C04C4604C6804F033
:103B90000304022C3FF47EAF04684FEA430E4FF05B
:103BA000030C0CFA0EFC24EA0C0C4C6804F0030421
:103BB00004FA0EF444EA0C0404604C6814F4403F28
:103BC000BFD02B4CD4F8F45045F00205C4F8F450A3
:103BD000D4F8F44004F002040194019C4FEA930CE1
:103BE0000CF10205214C54F8255003F0030E4FEA66
:103BF0008E0E0F2404FA0EF425EA04051D4CA04293
:103C00003FF460AF04F58064A0421ED004F58064E8
:103C1000A0421CD004F58064A0421AD004F5806450
:103C2000A04218D004F58064A04216D004F5806448
:103C3000A04214D004F58064A04212D004F50064C0
:103C4000A0423FF43DAF0A243DE701243BE70224B4
:103C500039E7032437E7042435E7052433E706244E
:103C600031E707242FE703B0F0BD00BF0004005880
:103C700000440258000002580AB1816170470904EB
:103C800081617047F0B50268136823F040531360F8
:103C9000836833B90268136823F080034C682343B8
:103CA00013600B68022B4DD0032B55D0036803F52E
:103CB000807203F5847E03F5887C03F59073CC6CE9
:103CC0008D6C2C431460CC6A5CB18C6A1C601368E8
:103CD00023F47C13CC6A4D6B2C430D6B2C43234394
:103CE0001360DEF8003023F01F034C6C2343CEF842
:103CF00000308B6B2BB10B681BB9CB6B0468013B9D
:103D00002364CB68002B73D0CC69002C48D08D6B1A
:103D100065B31768484E3E404F693B430F693B43CC
:103D200023434C6A23430C6A23431D430B6C1D43FE
:103D30002E4316608B68CCF8003003688A699A6459
:103D40000020F0BD036803F5C07203F5C47E03F5DF
:103D5000C87C03F5D073B2E7036803F5A07203F5DE
:103D6000A47E03F5A87C03F5B073A8E71668334D6D
:103D700035404E691E430B691E4334434B6A1C4356
:103D80000B6A1C4325431560C36AB3F1805FD1D130
:103D90004B69082BCED1136843F000631360C9E769
:103DA0008C6B84B11568264828404D691D430B690A
:103DB0001D432C430B6C1C43204310608B68CCF8D4
:103DC00000300020BDE7146824F03F044D692B4308
:103DD0000D692B4323431360C36AB3F1805FEDD1B8
:103DE0004B69082BEAD1136843F000631360E5E7E1
:103DF000CB69E3B18C6B84B11668124D35404E6AC5
:103E000033430E6A33431C430B6C1C43254315603C
:103E100003688A699A64002093E7146824F47C5448
:103E20004D6A2B430D6A2B4323431360F0E70823AD
:103E30004365012085E700BFC0C0FFF0C0C0FFFFA1
:103E4000C0FFFFF0FFC0FFF0431EDBB2012B01D922
:103E500001207047002965D010B400230B604B602F
:103E60008B60CB600B61022802D00024002213E09B
:103E70002D4B1B6813F0010F01D12C4CF6E74FF4CA
:103E80000074F3E7501C40F08070C86036E0531CAB
:103E900043F080730B610132012A3FD89000244B1C
:103EA0001B5813F0010F06D084EA030010F0020F34
:103EB00001D1501C086013F0100F06D084EA0300F3
:103EC00010F0200F01D1501C486013F4807F06D001
:103ED00084EA030010F4007F01D1501C886013F4C1
:103EE000803F0BD084EA030010F4802F06D113F436
:103EF000003FC7D1501C40F48030C86013F0807F71
:103F0000C9D084EA030010F0806FC4D113F0007FA1
:103F1000BDD1531C43F480330B61BCE700205DF836
:103F2000044B70470120704700B400522202040481
:103F300004B400522DE9F84305460F46164699464B
:103F4000DDF820802B681C6A04EA070CBCF1000C29
:103F500018BF4FF0010CB44514D0B8F1FF3FF1D0B9
:103F6000FEF78CFAA0EB0900404502D8B8F1000F2B
:103F7000E8D14FF400732B656B6D43F001036B6563
:103F8000012000E00020BDE8F8832DE9F04182B077
:103F9000044688461746FEF771FA0646256D022D3F
:103FA00009D0142D24D0242D28D01023636501209E
:103FB00002B0BDE8F081E368B3F1806FF1D0009703
:103FC0003346002220212046FFF7B4FF0028EFD11E
:103FD000606541462046FFF755FE0028E8D1D8F835
:103FE000383093B1D8F80030D3B904232365DFE724
:103FF000D8F80030023B012BD5D8E0E7D8F80030E4
:10400000032B18BF012BD0D1D9E7009733460122EB
:1040100002212046FFF78EFF236802225A62C7E77B
:10402000012B07D0022BC3D1236D142B0BD02423DB
:104030002365BDE7236D242B02D014232365B7E746
:1040400004232365B4E704232365B1E72DE9F04198
:1040500082B0044688461646FEF710FA2768B8F183
:10406000000F0AD00546236D042B0AD01023636588
:104070000123184602B0BDE8F081082363650123DF
:10408000F7E73B6C0133A364A36C6364C4F840801E
:104090003B6823F040533B6000962B4601220421ED
:1040A0002046FFF747FF034660B9226C127887F875
:1040B0005020216C01312164A16C0139A164A26CF2
:1040C000002AE9D1002BD4D100962B4601220221EF
:1040D0002046FFF72FFF03460028CAD1216802229D
:1040E0004A622265C5E72DE9F04182B00446884660
:1040F0001746FEF7C3F92568AA6CD5F81011B8F178
:10410000000F0AD00646236D042B0AD010236365E6
:104110000123184602B0BDE8F0810823636501233E
:10412000F7E72B6C0133A364A36C6364C4F840808D
:104130002B6823F0405343F080532B60E368B3F1C6
:10414000806F07D02368D3F8000110F4E06F2AD005
:104150009A6401E023689A6400973346012206219D
:104160002046FFF7E7FE034660B9226C95F8501031
:104170001170216C01312164A16C0139A164A26C20
:10418000002AE9D1002BC4D1009733460122022135
:104190002046FFF7CFFE03460028BAD1216802224D
:1041A0004A622265B5E7C3F81011D5E72DE9F0435F
:1041B00083B004460D469146FEF760F921688F6C86
:1041C000D1F81061216D042905D010236365012009
:1041D00003B0BDE8F0838046EB68B3F5800FF4D1FF
:1041E000CDF800900346002220212046FFF7A2FED2
:1041F0000028EDD123682A68C3F8882023686A68FC
:10420000C3F8802023682A69C3F8902021680B68CE
:1042100023F04353AA68E8680243134343F0005372
:104220000B60E368B3F1806F07D02368D3F80021F7
:1042300012F4E06F13D09F6401E023689F64CDF80F
:1042400000904346012208212046FFF773FE002814
:10425000BED1236808225A6202232365B8E7C3F857
:104260001061ECE7816500207047000030B583B035
:104270000446FEF703F9002C77D00546002363655A
:10428000236D13B1002003B030BD2046FCF7AEFB18
:1042900041F288312046FFF7E5FF20688268344B01
:1042A0001340E2682169013942EA0142616901393A
:1042B00042EA0122616B0A43E1690A4313438360C6
:1042C0002268D36823F4E023216A0B43D360216B77
:1042D000A36B226843EA014313612368E26B5A61CE
:1042E00021680B6823F4F8536268013A43EA022319
:1042F0000B60A36D00932B46002220212046FFF780
:1043000019FE0028BFD12168CB6823F0FF03626A41
:10431000013A1343CB602268136823F04003A1687D
:104320000B4313602168D1F8083123F0A043A26A3F
:10433000E56A2A431343C1F808312268136843F041
:1043400001031360A369022B06D0E368B3F1806F09
:1043500008D00223236596E72268936843F002039E
:104360009360F2E7012323658DE701208BE700BF0F
:10437000F4F8E0F82DE9F0438DB081460D4602686F
:104380009F4B9A4205D04FF00008012600231F469C
:1043900004E04FF001080026F8E72346012B0FD870
:1043A0005C1CE4B203EB43030DEBC3012046FFF7B3
:1043B0004BFD0028F1D00823C9F854300127ECE761
:1043C000002F40F016818E4B1B6813F0010F00F098
:1043D00014818B4A136823F0010313600122894B77
:1043E0001B6813F0010F07D086490B6823F0010307
:1043F0000B6042F00202D2B206EB46030CA901EBBD
:10440000C30353F8283C013B7F4800EB8303596802
:1044100021F480715960036813F0010F00F03881B6
:10442000036823F001030360B8F1000F40F0EE8051
:10443000D5F800E0434608EB48010CA800EBC101A9
:1044400051F8301C8E4522D008EB480C00EBCC0C08
:104450005CF8280CAC68844219D068685CF82CCCF5
:10446000604500F05E8103EB430C0CA800EBCC0C24
:104470005CF8240CEC68844209D003EB430C0CA8D4
:1044800000EBCC0C5CF8200C2C69844248D18E45A2
:1044900000F04B81013989005B480844416821F0F4
:1044A0000101416003EB43010CA800EBC10151F88D
:1044B0002C1C39B10139890053480844416821F066
:1044C0001001416003EB43000CA901EBC00050F860
:1044D000281C013989004C4C0C44616821F480711E
:1044E000616050F8241C49B1013901F001018900D3
:1044F00045480844416821F48031416003EB43039F
:104500000CA901EBC30353F8203C4BB1013B03F072
:1045100001039B003C4919444B6823F080734B60B6
:10452000A9680139384800EB81014B6823F44073D6
:1045300043EA462343F480734B606B69013B016897
:10454000C1F307418B4205D9016821F47F0141EA9B
:10455000034303602C4B1B6813F0010F00F02B8109
:104560002B68013B9B00284919444B6823F0030347
:1045700043F001034B606B684BB1013B9B00224948
:1045800019444B6823F0300343F010034B60EB6891
:1045900013F4803F00F0EF80013B03F001039B0028
:1045A000194919444B6823F4E02343F480334B60EA
:1045B0002B6913F4803F00F0EE80013B03F0010310
:1045C0009B00114919444B6823F4E02343F4403322
:1045D0004B6012F0010F04D009490B6843F001034E
:1045E0000B6012F0020F04D0064A136843F0010377
:1045F000136038460DB0BDE8F0833A46EFE600BFE1
:104600000050005200A0005200B40052434608EB94
:1046100048000CA901EBC00050F8301C013989009A
:10462000964C0C44616841F00201616050F82C1C0A
:1046300039B10139890091480844416841F02001AD
:10464000416003EB43010CA800EBC10151F8241CAD
:1046500049B1013901F001018900884808444168E5
:1046600041F48021416003EB43030CA901EBC30338
:1046700053F8203C002B3FF4DBAE013B03F0010379
:104680009B007E4919444B6843F080634B60CFE642
:1046900006EB46030CA901EBC30353F8303C002B97
:1046A0003FF4C6AE013B9B00744919444B6823F0AC
:1046B00001034B6006EB46030CA901EBC30353F85F
:1046C0002C3C3BB1013B9B006C4919444B6823F0E7
:1046D00010034B6006EB46030CA901EBC30353F830
:1046E000243C4BB1013B03F001039B006349194497
:1046F0004B6823F480334B6006EB46030CA901EBB7
:10470000C30353F8203C002B3FF492AE013B03F06F
:1047100001039B00594919444B6823F080734B6097
:1047200086E600287FF4B3AE9DE66C6803EB430099
:104730000DF1300C0CEBC00050F82C0C84427FF4CF
:10474000A9AEEC6803EB43000CEBC00050F8240C5E
:1047500084427FF49FAE2C6903EB43000CEBC00056
:1047600050F8200C84427FF495AE44490B6843F026
:1047700001030B60D4E6002B3FF41AAF013B03F0BA
:1047800001039B003D4919444B6823F0E06343F06B
:1047900080734B600CE7002B3FF41BAF013B03F031
:1047A00001039B00354919444B6823F0E06343F053
:1047B00040734B600DE72B68013B9B002F49194468
:1047C0004B6823F0030343EA460343F001034B60C5
:1047D0006B685BB1013B9B00284919444B6823F08F
:1047E000300343EA461343F010034B60EB6813F4C5
:1047F000803F20D0013B03F001039B001F49194477
:104800004B6823F4E02343EA864343F480334B6050
:104810002B6913F4803F1FD0013B03F001039B0081
:10482000164919444B6823F4E02343EA864343F4D2
:1048300040334B60CDE6002BEAD0013B03F001038F
:104840009B000E4919444B6823F0E06343EA8663FA
:1048500043F080734B60DBE7002B3FF4BAAE013BC3
:1048600003F001039B00054919444B6823F0E06302
:1048700043EA866343F040734B60AAE600B40052FB
:10488000024A136843F4807313607047004802586B
:10489000134BDB6813F0040F07D1114BDB6803F0F7
:1048A000070383421AD00120704710B50C4AD36821
:1048B00023F007030343D360FDF7E0FD0446084BF4
:1048C0005B6813F4005F07D1FDF7D8FD001BB0F55E
:1048D0007A7FF4D9012000E0002010BD002070474D
:1048E00000480258002800F0D58238B50446036815
:1048F00013F0010F25D0A04A136903F03803926A20
:10490000102B15D0182B0FD06368B3F5803F3FD024
:10491000002B53D1984B1A6822F480321A601A681F
:1049200022F480221A6038E002F00302022AEBD15E
:10493000914B1B6813F4003F03D06368002B00F019
:10494000AB82236813F0020F00F088808A4A136953
:10495000926A13F038035AD0182B55D0E368002B15
:1049600000F0A98084490A6822F0190213430B6001
:10497000FDF784FD0546804B1B6813F0040F40F0E3
:104980009180FDF77BFD401B0228F4D903208AE2C9
:10499000794A136843F48033136063682BB3FDF7DF
:1049A0006DFD0546744B1B6813F4003FC9D1FDF73C
:1049B00065FD401B6428F5D9032074E2B3F5A02FF0
:1049C00009D06D4B1A6822F480321A601A6822F4FA
:1049D00080221A60E1E7684B1A6842F480221A606C
:1049E0001A6842F480321A60D7E7FDF747FD0546A2
:1049F000614B1B6813F4003FA3D0FDF73FFD401B44
:104A00006428F5D903204EE212F0030FA6D15A4BC9
:104A10001B6813F0040F03D0E368002B00F03E8204
:104A2000554A136823F01903E1680B431360FDF73F
:104A300025FD0546504B1B6813F0040F06D1FDF70A
:104A40001DFD401B0228F5D903202CE24A4A536879
:104A500023F0FE43216943EA01635360236813F0A6
:104A6000100F51D0444A136903F03803926A082B9F
:104A700039D0182B33D0E369002B69D03E4A136834
:104A800043F080031360FDF7F9FC05463A4B1B68C1
:104A900013F4807F53D1FDF7F1FC401B0228F5D9B8
:104AA000032000E2344A536823F0FE43216943EABD
:104AB00001635360D2E7304A136823F001031360A7
:104AC000FDF7DCFC05462C4B1B6813F0040FC5D02A
:104AD000FDF7D4FC401B0228F5D90320E3E102F0E6
:104AE0000302012AC7D1244B1B6813F4807F03D033
:104AF000E369802B40F0D4811F4AD36823F07C53B4
:104B0000216A43EA0163D360236813F0080F49D098
:104B10006369002B32D0184A536F43F00103536787
:104B2000FDF7ACFC0546144B5B6F13F0020F39D157
:104B3000FDF7A4FC401B0228F5D90320B3E10E4A7F
:104B4000D36823F07C53216A43EA0163D360DBE737
:104B5000094A136823F080031360FDF78FFC0546B4
:104B6000054B1B6813F4807FCED0FDF787FC401BFC
:104B70000228F5D9032096E1004402589D4A536F5C
:104B800023F001035367FDF779FC0546994B5B6FF2
:104B900013F0020F06D0FDF771FC401B0228F5D977
:104BA000032080E1236813F0200F29D0A3699BB173
:104BB000904A136843F480531360FDF75FFC054689
:104BC0008C4B1B6813F4005F1AD1FDF757FC401B98
:104BD0000228F5D9032066E1864A136823F480533E
:104BE0001360FDF74BFC0546824B1B6813F4005F16
:104BF00006D0FDF743FC401B0228F5D9032052E103
:104C0000236813F0040F21D1636A002B00F04A815E
:104C1000784A126902F03802182A00F0F180022B5B
:104C200075D0744A136823F080731360FDF726FC77
:104C30000446704B1B6813F0007F00F0D880FDF72E
:104C40001DFC001B0228F4D903202CE16A4A1368DA
:104C500043F480731360FDF711FC0546664B1B6837
:104C600013F4807F06D1FDF709FC401B6428F5D9B9
:104C7000032018E1A368012B0AD00BBB5D4B1A6F10
:104C800022F001021A671A6F22F004021A6704E088
:104C9000584A136F43F001031367A36833B3FDF75A
:104CA000EDFB0546534B1B6F13F0020FACD1FDF724
:104CB000E5FB401B41F288339842F3D90320F2E030
:104CC000052B09D04B4B1A6F22F001021A671A6F9D
:104CD00022F004021A67E0E7464B1A6F42F0040222
:104CE0001A671A6F42F001021A67D6E7FDF7C6FB92
:104CF0000546404B1B6F13F0020F85D0FDF7BEFB3E
:104D0000401B41F288339842F3D90320CBE0394A63
:104D1000136823F080731360FDF7B0FB0546354B35
:104D20001B6813F0007F06D0FDF7A8FB401B02288C
:104D3000F5D90320B7E02F4B996A304A0A40A16A9F
:104D4000E06A41EA00110A439A62226B013AC2F317
:104D50000802616B0139490289B20A43A16B01392A
:104D6000090401F4FE010A43E16B0139090601F06F
:104D7000FE410A431A63DA6A22F00102DA625A6BD0
:104D80006FF3CF02A16C42EAC1025A63DA6A22F0E1
:104D90000C02216C0A43DA62DA6A22F00202616CC8
:104DA0000A43DA62DA6A42F48032DA62DA6A42F498
:104DB0000032DA62DA6A42F48022DA62DA6A42F0B7
:104DC0000102DA621A6842F080721A60FDF756FB3F
:104DD0000446084B1B6813F0007F06D1FDF74EFB1D
:104DE000001B0228F5D903205DE000205BE00020D5
:104DF00059E000BF00440258004802580CFCFFFF75
:104E000030498A6A086B012B4ED002F00303A16A75
:104E10008B424BD1C2F30512E36A9A4248D1C0F3E8
:104E20000802236B013B9A4244D1C0F34622636BD4
:104E3000013B9A4240D1C0F30642A36B013B9A4228
:104E40003CD1C0F30660E36B013B984238D11D4B67
:104E50005B6BC3F3CC03A26C9A4201D1002022E029
:104E6000184AD36A23F00103D362FDF707FB054616
:104E7000FDF704FBA842FBD0124A536B6FF3CF033C
:104E8000A16C43EAC1035363D36A43F00103D362C5
:104E9000002008E001207047012004E0012002E02A
:104EA000012000E0002038BD0120FCE70120FAE7E6
:104EB0000120F8E70120F6E70120F4E70120F2E7FE
:104EC0000120F0E700440258754B1B6903F03803DA
:104ED000102B00F0DE80182B0FD0002B40F0DB8071
:104EE0006F4B1B6813F0200F00F0D7806C4B1B68D2
:104EF000C3F3C1036B48D840704710B4684B9A6A3B
:104F000002F003029C6AC4F30510D96A01F00101A2
:104F10005B6BC3F3CC0301FB03F307EE903AF8EEAF
:104F2000677A14F47C7F77D0012A4AD0022A76D09F
:104F3000002A40F091805A4B1B6813F0200F23D0B9
:104F400057490A68C2F3C102564BD34007EE103AE4
:104F5000F8EE476A07EE100AB8EE476A86EE867AE0
:104F60000B6BC3F3080306EE903AF8EE666A9FED0A
:104F70004E6A67EE867A76EEA77AF7EE006A77EEEB
:104F8000A67A27EE277A38E007EE100AF8EE476A8D
:104F90009FED466A86EE267A414B1B6BC3F30803EE
:104FA00006EE903AF8EE666A9FED3F6A67EE867A03
:104FB00076EEA77AF7EE006A77EEA67A27EE277AE2
:104FC0001BE007EE100AF8EE476A9FED396A86EE9D
:104FD000267A334B1B6BC3F3080306EE903AF8EEC8
:104FE000666A9FED316A67EE867A76EEA77AF7EE0B
:104FF000006A77EEA67A27EE277A294B1B6BC3F35C
:105000004623013307EE903AF8EE677AC7EE276A37
:10501000FCEEE67A17EE900A5DF8044B704707EE57
:10502000100AF8EE476A9FED236A86EE267A1C4B3B
:105030001B6BC3F3080306EE903AF8EE666A9FED29
:105040001A6A67EE867A76EEA77AF7EE006A77EE4E
:10505000A67A27EE277AD0E707EE100AF8EE476A1D
:105060009FED136A86EE267A0D4B1B6BC3F3080384
:1050700006EE903AF8EE666A9FED0B6A67EE867A66
:1050800076EEA77AF7EE006A77EEA67A27EE277A11
:10509000B3E709487047094870470248704700BFA6
:1050A000004402580090D003000000390024744CE2
:1050B0000024744A20BCBE4B40787D0100093D00AD
:1050C000002800F0328170B50D4604469B4B1B68EA
:1050D00003F00F038B420BD2984A136823F00F039F
:1050E0000B431360136803F00F038B4240F01F81E2
:1050F000236813F0040F0CD02269914B9B6903F0D5
:1051000070039A4205D98E498B6923F070031A43C4
:105110008A61236813F0080F0CD06269884BDB6941
:1051200003F070039A4205D98549CB6923F07003D7
:105130001A43CA61236813F0100F0CD0A269804B88
:10514000DB6903F4E0639A4205D97D49CB6923F416
:10515000E0631A43CA61236813F0200F0CD0E269A0
:10516000774B1B6A03F070039A4205D974490B6AA6
:1051700023F070031A430A62236813F0020F0CD065
:10518000E2686F4B9B6903F00F039A4205D96C49A3
:105190008B6923F00F031A438A61236813F0010F10
:1051A00041D0674A936923F47063A1680B4393610C
:1051B0006368022B0AD0032B27D0012B2CD0604A26
:1051C000126812F0040F06D10120ADE0126812F44B
:1051D000003F00F0AE805A490A6922F007021343EB
:1051E0000B61FDF74BF90646554B1B6903F038037D
:1051F0006268B3EBC20F16D0FDF740F9801B41F295
:1052000088339842F0D903208EE04D4A126812F09C
:10521000007FE0D1012087E0494A126812F4807FC4
:10522000D9D1012080E0236813F0020F0CD0E2688E
:10523000434B9B6903F00F039A4205D240498B69A7
:1052400023F00F031A438A613C4B1B6803F00F03E2
:10525000AB420AD9394A136823F00F032B4313607A
:10526000136803F00F03AB4265D1236813F0040FFA
:105270000CD02269324B9B6903F070039A4205D22D
:105280002F498B6923F070031A438A61236813F056
:10529000080F0CD062692A4BDB6903F070039A4255
:1052A00005D22749CB6923F070031A43CA612368EA
:1052B00013F0100F0CD0A269214BDB6903F4E063FB
:1052C0009A4205D21E49CB6923F4E0631A43CA61AE
:1052D000236813F0200F0CD0E269194B1B6A03F00E
:1052E00070039A4205D216490B6A23F070031A43E1
:1052F0000A62FFF7E9FD12498B69C3F30323114AE0
:10530000D35C03F01F03D8408B6903F00F03D35C19
:1053100003F01F0320FA03F30B4A13600B4B1860D2
:105320000B4B1868FCF77AFD70BD01207047012017
:10533000FAE70120F8E70120F6E700BF002000525D
:1053400000440258701B0108180000241C000024AF
:105350002400002408B5FFF7B7FD0B4A9369C3F397
:1053600003230A49CB5C03F01F0320FA03F392697D
:1053700002F00F02885C00F01F0023FA00F0044ADC
:105380001060044A136008BD00440258701B0108F5
:10539000180000241C00002408B5FFF7DBFF054BB4
:1053A000DB69C3F30213044AD35C03F01F03D84044
:1053B00008BD00BF00440258701B010808B5FFF784
:1053C000C9FF054BDB69C3F30223044AD35C03F036
:1053D0001F03D84008BD00BF00440258701B0108DD
:1053E0003F230360114B1A6902F0070242609A6979
:1053F00002F4706282609A6902F00F02C2609A69D8
:1054000002F070020261DA6902F070024261DA6948
:1054100002F4E06282611B6A03F07003C361044B13
:105420001B6803F00F030B60704700BF0044025875
:1054300000200052404B9B6A03F00303032B79D0FA
:1054400070B505460E463C4A136823F0806313602E
:10545000FDF714F80446384B1B6813F0006F06D0B4
:10546000FDF70CF8031B022BF5D9032070BD324B5E
:105470009A6A22F47C32296842EA01329A626A68A6
:10548000013AC2F30802A9680139490289B20A4304
:10549000E9680139090401F4FE010A432969013967
:1054A000090601F0FE410A439A63DA6A22F0C0025B
:1054B00069690A43DA62DA6A22F02002A9690A43BA
:1054C000DA62DA6A22F01002DA62DA6B6FF3CF0284
:1054D000E96942EAC102DA63DA6A42F01002DA628A
:1054E000C6B91A46DB6A43F40023D362124A136832
:1054F00043F080631360FCF7C1FF04460E4B1B684A
:1055000013F0006F14D1FCF7B9FF001B0228F5D986
:105510000320ABE7012E05D0074AD36A43F40013FA
:10552000D362E3E7044AD36A43F48013D362DDE72E
:1055300000209BE70120704700440258404B9B6AC3
:1055400003F00303032B79D070B505460E463C4AA1
:10555000136823F080531360FCF790FF0446384B28
:105560001B6813F0005F06D0FCF788FF031B022BBB
:10557000F5D9032070BD324B9A6A22F07C722968FB
:1055800042EA01529A626A68013AC2F30802A968C3
:105590000139490289B20A43E9680139090401F471
:1055A000FE010A4329690139090601F0FE410A4357
:1055B0001A64DA6A22F4406269690A43DA62DA6AD2
:1055C00022F40072A9690A43DA62DA6A22F480726C
:1055D000DA625A6C6FF3CF02E96942EAC1025A6497
:1055E000DA6A42F48072DA62C6B91A46DB6A43F4B8
:1055F0008003D362124A136843F080531360FCF7B0
:105600003DFF04460E4B1B6813F0005F14D1FCF7FE
:1056100035FF001B0228F5D90320ABE7012E05D08A
:10562000074AD36A43F08073D362E3E7044AD36A3C
:1056300043F40003D362DDE700209BE701207047BD
:1056400000440258F8B50446036813F0006F30D0E8
:10565000436EB3F5001F26D00ED8ABB1B3F5801F53
:1056600007D102210830FFF7E5FE054695B12E4629
:1056700021E0012635461EE0B3F5401F01D100258B
:1056800008E00126354616E09B4AD36A43F400330E
:10569000D3620025984A136D23F44013616E0B43C7
:1056A0001365002607E002212830FFF747FF054673
:1056B000DCE700263546236813F4807F14D0A36D01
:1056C000042B34D8DFE803F003252C0808008A4AAD
:1056D000D36A43F40033D36265BB874A136D23F06A
:1056E0000703A16D0B431365236813F4806F47D044
:1056F000D4F8A430B3F5800F33D020D85BB3B3F522
:10570000001F19D1002104F10800FFF793FE0546A0
:105710002DE0002104F10800FFF78CFE0546DBE7D1
:10572000002104F12800FFF709FF0546D4E7012610
:105730003546D9E72E46D7E70126354620E0B3F5B2
:10574000000F14D0B3F5200F11D0B3F5C00F0ED059
:105750000126354614E0684AD36A43F40033D36225
:1057600005E0002104F12800FFF7E8FE0546E5B951
:10577000614A936D23F46003D4F8A4100B4393653E
:10578000236813F4006F36D0D4F8A830B3F1007F4B
:1057900022D00FD8D3B1B3F1807F08D1002104F11A
:1057A0000800FFF747FE05461CE02E46E8E7012605
:1057B000354620E0B3F1806F14D0B3F1A06F11D063
:1057C000B3F1407F0ED00126354614E04A4AD36A31
:1057D00043F40033D36205E0002104F12800FFF711
:1057E000ADFE0546C5B9444A936D23F0E063D4F895
:1057F000A8100B439365236813F0007F24D0E36C5B
:10580000202B13D00DD8BBB1102B07D13A4AD36A45
:1058100043F40033D3620FE02E46ECE70126354611
:1058200012E0302B08D0012635460DE0022104F1AC
:105830000800FFF7FFFD0546D5B92F4AD36C23F0CA
:105840003003E16C0B43D364236813F4805F31D0E1
:10585000E36DB3F5005F1FD00FD8BBB1B3F5805F28
:1058600008D1002104F10800FFF7E4FD054619E026
:105870002E46E9E7012635461CE0B3F5405F11D01E
:10588000B3F5804F0ED00126354613E01A4AD36A8D
:1058900043F40033D36205E0002104F12800FFF750
:1058A0004DFE054615BB144A136D23F4E043E16D2C
:1058B0000B431365236813F4005F33D0236EB3F5F5
:1058C000003F27D01AD843B1B3F5803F10D1012152
:1058D00004F10800FFF7AEFD054615BB064A136D3F
:1058E00023F4E023216E0B4313651BE02E46E1E712
:1058F0000126354616E000BF00440258B3F5802F5C
:10590000EBD0B3F5A02FE8D0B3F5403FE5D00126AA
:10591000354607E0012104F12800FFF70FFE054698
:10592000DBE72E46236813F4804F30D0D4F8AC3038
:10593000B3F1005F23D016D843B1B3F1805F0FD12C
:10594000012104F10800FFF775FD0546F5B98B4A02
:10595000936D23F0E043D4F8AC100B43936516E04D
:105960000126354613E0B3F1804FEFD0B3F1A04FDD
:10597000ECD0B3F1405FE9D00126354607E00121C4
:1059800004F12800FFF7DAFD0546DFE72E4623681D
:1059900013F4004F20D0E36EB3F1805F06D0B3F173
:1059A000005F11D03BB10126354615E0734AD36A3A
:1059B00043F40033D36275B9704A136D23F040533A
:1059C000E16E0B43136507E0012104F10800FFF7C6
:1059D00031FD0546EFE72E46236813F0807F13D094
:1059E000A36C032B3BD8DFE803F007023307634ABD
:1059F000D36A43F40033D362A5BB604AD36C23F06F
:105A00000303A16C0B43D364236813F4800F2BD1E1
:105A1000236813F0010F00F0A380A36F282B00F27E
:105A20009D80DFE803F08B9B9B9B9B9B9B9B859BB7
:105A30009B9B9B9B9B9B949B9B9B9B9B9B9B8B9BCD
:105A40009B9B9B9B9B9B8B9B9B9B9B9B9B9B8B0061
:105A5000022104F10800FFF7EDFC0546CCE7012622
:105A60003546D1E72E46CFE7454A136843F48073A5
:105A70001360FCF703FD0746414B1B6813F4807F5E
:105A800005D1FCF7FBFCC01B6428F5D90325002DCC
:105A90004AD13A4B1B6FD4F8B020534013F4407FE7
:105AA0000CD0364B1A6F22F44072196F41F48031DA
:105AB0001967196F21F4803119671A67D4F8B0306B
:105AC000B3F5807F15D08DBBD4F8B03003F44072AD
:105AD000B2F5407F1ED0294A136923F47C53136129
